{
  "contractName": "Marketplace",
  "abi": [
    {
      "inputs": [],
      "stateMutability": "nonpayable",
      "type": "constructor"
    },
    {
      "anonymous": false,
      "inputs": [
        {
          "indexed": false,
          "internalType": "address",
          "name": "nftContract",
          "type": "address"
        },
        {
          "indexed": false,
          "internalType": "uint256",
          "name": "tokenId",
          "type": "uint256"
        },
        {
          "indexed": false,
          "internalType": "address",
          "name": "seller",
          "type": "address"
        },
        {
          "indexed": false,
          "internalType": "address",
          "name": "owner",
          "type": "address"
        },
        {
          "indexed": false,
          "internalType": "uint256",
          "name": "price",
          "type": "uint256"
        }
      ],
      "name": "NFTListed",
      "type": "event"
    },
    {
      "anonymous": false,
      "inputs": [
        {
          "indexed": false,
          "internalType": "address",
          "name": "nftContract",
          "type": "address"
        },
        {
          "indexed": false,
          "internalType": "uint256",
          "name": "tokenId",
          "type": "uint256"
        },
        {
          "indexed": false,
          "internalType": "address",
          "name": "seller",
          "type": "address"
        },
        {
          "indexed": false,
          "internalType": "address",
          "name": "owner",
          "type": "address"
        },
        {
          "indexed": false,
          "internalType": "uint256",
          "name": "price",
          "type": "uint256"
        }
      ],
      "name": "NFTSold",
      "type": "event"
    },
    {
      "inputs": [],
      "name": "LISTING_FEE",
      "outputs": [
        {
          "internalType": "uint256",
          "name": "",
          "type": "uint256"
        }
      ],
      "stateMutability": "view",
      "type": "function"
    },
    {
      "inputs": [
        {
          "internalType": "address",
          "name": "_nftContract",
          "type": "address"
        },
        {
          "internalType": "uint256",
          "name": "_tokenId",
          "type": "uint256"
        },
        {
          "internalType": "uint256",
          "name": "_price",
          "type": "uint256"
        }
      ],
      "name": "listNft",
      "outputs": [],
      "stateMutability": "payable",
      "type": "function"
    },
    {
      "inputs": [
        {
          "internalType": "address",
          "name": "_nftContract",
          "type": "address"
        },
        {
          "internalType": "uint256",
          "name": "_tokenId",
          "type": "uint256"
        }
      ],
      "name": "buyNft",
      "outputs": [],
      "stateMutability": "payable",
      "type": "function"
    },
    {
      "inputs": [
        {
          "internalType": "address",
          "name": "_nftContract",
          "type": "address"
        },
        {
          "internalType": "uint256",
          "name": "_tokenId",
          "type": "uint256"
        },
        {
          "internalType": "uint256",
          "name": "_price",
          "type": "uint256"
        }
      ],
      "name": "resellNft",
      "outputs": [],
      "stateMutability": "payable",
      "type": "function"
    },
    {
      "inputs": [],
      "name": "getListedNfts",
      "outputs": [
        {
          "components": [
            {
              "internalType": "address",
              "name": "nftContract",
              "type": "address"
            },
            {
              "internalType": "uint256",
              "name": "tokenId",
              "type": "uint256"
            },
            {
              "internalType": "address payable",
              "name": "seller",
              "type": "address"
            },
            {
              "internalType": "address payable",
              "name": "owner",
              "type": "address"
            },
            {
              "internalType": "uint256",
              "name": "price",
              "type": "uint256"
            },
            {
              "internalType": "bool",
              "name": "listed",
              "type": "bool"
            }
          ],
          "internalType": "struct Marketplace.NFT[]",
          "name": "",
          "type": "tuple[]"
        }
      ],
      "stateMutability": "view",
      "type": "function"
    },
    {
      "inputs": [],
      "name": "getMyNfts",
      "outputs": [
        {
          "components": [
            {
              "internalType": "address",
              "name": "nftContract",
              "type": "address"
            },
            {
              "internalType": "uint256",
              "name": "tokenId",
              "type": "uint256"
            },
            {
              "internalType": "address payable",
              "name": "seller",
              "type": "address"
            },
            {
              "internalType": "address payable",
              "name": "owner",
              "type": "address"
            },
            {
              "internalType": "uint256",
              "name": "price",
              "type": "uint256"
            },
            {
              "internalType": "bool",
              "name": "listed",
              "type": "bool"
            }
          ],
          "internalType": "struct Marketplace.NFT[]",
          "name": "",
          "type": "tuple[]"
        }
      ],
      "stateMutability": "view",
      "type": "function"
    },
    {
      "inputs": [],
      "name": "getMyListedNfts",
      "outputs": [
        {
          "components": [
            {
              "internalType": "address",
              "name": "nftContract",
              "type": "address"
            },
            {
              "internalType": "uint256",
              "name": "tokenId",
              "type": "uint256"
            },
            {
              "internalType": "address payable",
              "name": "seller",
              "type": "address"
            },
            {
              "internalType": "address payable",
              "name": "owner",
              "type": "address"
            },
            {
              "internalType": "uint256",
              "name": "price",
              "type": "uint256"
            },
            {
              "internalType": "bool",
              "name": "listed",
              "type": "bool"
            }
          ],
          "internalType": "struct Marketplace.NFT[]",
          "name": "",
          "type": "tuple[]"
        }
      ],
      "stateMutability": "view",
      "type": "function"
    }
  ],
  "bytecode": "0x6080604052655af3107a4000600355348015610019575f80fd5b5060015f819055503360045f6101000a81548173ffffffffffffffffffffffffffffffffffffffff021916908373ffffffffffffffffffffffffffffffffffffffff160217905550611b208061006e5f395ff3fe60806040526004361061006f575f3560e01c806334f5b6241161004d57806334f5b624146100f15780634ddf4f8f1461010d5780638d6cb3fb14610129578063c922b17c146101535761006f565b8063047b07bf146100735780631f4cc4db1461009d5780632b86ae38146100c7575b5f80fd5b34801561007e575f80fd5b5061008761016f565b60405161009491906114d4565b60405180910390f35b3480156100a8575f80fd5b506100b1610491565b6040516100be91906114d4565b60405180910390f35b3480156100d2575f80fd5b506100db61081f565b6040516100e89190611503565b60405180910390f35b61010b60048036038101906101069190611574565b610825565b005b610127600480360381019061012291906115c4565b610a31565b005b348015610134575f80fd5b5061013d610c48565b60405161014a91906114d4565b60405180910390f35b61016d60048036038101906101689190611574565b610ea2565b005b60605f61017c60026111e0565b90505f805b8281101561021d573373ffffffffffffffffffffffffffffffffffffffff1660055f6001846101b0919061162f565b81526020019081526020015f206003015f9054906101000a900473ffffffffffffffffffffffffffffffffffffffff1673ffffffffffffffffffffffffffffffffffffffff160361020a57818061020690611662565b9250505b808061021590611662565b915050610181565b505f8167ffffffffffffffff811115610239576102386116a9565b5b60405190808252806020026020018201604052801561027257816020015b61025f6112ae565b8152602001906001900390816102575790505b5090505f805b84811015610486573373ffffffffffffffffffffffffffffffffffffffff1660055f6001846102a7919061162f565b81526020019081526020015f206003015f9054906101000a900473ffffffffffffffffffffffffffffffffffffffff1673ffffffffffffffffffffffffffffffffffffffff16036104735760055f600183610302919061162f565b81526020019081526020015f206040518060c00160405290815f82015f9054906101000a900473ffffffffffffffffffffffffffffffffffffffff1673ffffffffffffffffffffffffffffffffffffffff1673ffffffffffffffffffffffffffffffffffffffff16815260200160018201548152602001600282015f9054906101000a900473ffffffffffffffffffffffffffffffffffffffff1673ffffffffffffffffffffffffffffffffffffffff1673ffffffffffffffffffffffffffffffffffffffff168152602001600382015f9054906101000a900473ffffffffffffffffffffffffffffffffffffffff1673ffffffffffffffffffffffffffffffffffffffff1673ffffffffffffffffffffffffffffffffffffffff16815260200160048201548152602001600582015f9054906101000a900460ff161515151581525050838381518110610459576104586116d6565b5b6020026020010181905250818061046f90611662565b9250505b808061047e90611662565b915050610278565b508194505050505090565b60605f61049e60026111e0565b90505f805b82811015610575573373ffffffffffffffffffffffffffffffffffffffff1660055f6001846104d2919061162f565b81526020019081526020015f206002015f9054906101000a900473ffffffffffffffffffffffffffffffffffffffff1673ffffffffffffffffffffffffffffffffffffffff1614801561054e575060055f600183610530919061162f565b81526020019081526020015f206005015f9054906101000a900460ff165b1561056257818061055e90611662565b9250505b808061056d90611662565b9150506104a3565b505f8167ffffffffffffffff811115610591576105906116a9565b5b6040519080825280602002602001820160405280156105ca57816020015b6105b76112ae565b8152602001906001900390816105af5790505b5090505f805b84811015610814573373ffffffffffffffffffffffffffffffffffffffff1660055f6001846105ff919061162f565b81526020019081526020015f206002015f9054906101000a900473ffffffffffffffffffffffffffffffffffffffff1673ffffffffffffffffffffffffffffffffffffffff1614801561067b575060055f60018361065d919061162f565b81526020019081526020015f206005015f9054906101000a900460ff165b156108015760055f600183610690919061162f565b81526020019081526020015f206040518060c00160405290815f82015f9054906101000a900473ffffffffffffffffffffffffffffffffffffffff1673ffffffffffffffffffffffffffffffffffffffff1673ffffffffffffffffffffffffffffffffffffffff16815260200160018201548152602001600282015f9054906101000a900473ffffffffffffffffffffffffffffffffffffffff1673ffffffffffffffffffffffffffffffffffffffff1673ffffffffffffffffffffffffffffffffffffffff168152602001600382015f9054906101000a900473ffffffffffffffffffffffffffffffffffffffff1673ffffffffffffffffffffffffffffffffffffffff1673ffffffffffffffffffffffffffffffffffffffff16815260200160048201548152602001600582015f9054906101000a900460ff1615151515815250508383815181106107e7576107e66116d6565b5b602002602001018190525081806107fd90611662565b9250505b808061080c90611662565b9150506105d0565b508194505050505090565b60035481565b61082d6111ec565b5f811161086f576040517f08c379a00000000000000000000000000000000000000000000000000000000081526004016108669061175d565b60405180910390fd5b60035434146108b3576040517f08c379a00000000000000000000000000000000000000000000000000000000081526004016108aa906117c5565b60405180910390fd5b8273ffffffffffffffffffffffffffffffffffffffff166323b872dd3330856040518463ffffffff1660e01b81526004016108f0939291906117f2565b5f604051808303815f87803b158015610907575f80fd5b505af1158015610919573d5f803e3d5ffd5b505050505f60055f8481526020019081526020015f20905033816002015f6101000a81548173ffffffffffffffffffffffffffffffffffffffff021916908373ffffffffffffffffffffffffffffffffffffffff16021790555030816003015f6101000a81548173ffffffffffffffffffffffffffffffffffffffff021916908373ffffffffffffffffffffffffffffffffffffffff1602179055506001816005015f6101000a81548160ff0219169083151502179055508181600401819055506109e46001611239565b7fa0c6c0d02d86fdacecbaa5fdf5894bab204e31a778250474108540733a9b8d198484333086604051610a1b959493929190611827565b60405180910390a150610a2c611291565b505050565b610a396111ec565b5f60055f8381526020019081526020015f2090508060040154341015610a94576040517f08c379a0000000000000000000000000000000000000000000000000000000008152600401610a8b906118e8565b60405180910390fd5b5f339050816002015f9054906101000a900473ffffffffffffffffffffffffffffffffffffffff1673ffffffffffffffffffffffffffffffffffffffff166108fc3490811502906040515f60405180830381858888f19350505050158015610afe573d5f803e3d5ffd5b508373ffffffffffffffffffffffffffffffffffffffff166323b872dd308385600101546040518463ffffffff1660e01b8152600401610b4093929190611961565b5f604051808303815f87803b158015610b57575f80fd5b505af1158015610b69573d5f803e3d5ffd5b5050505080826003015f6101000a81548173ffffffffffffffffffffffffffffffffffffffff021916908373ffffffffffffffffffffffffffffffffffffffff1602179055505f826005015f6101000a81548160ff021916908315150217905550610bd4600161129a565b7f16f1dbd97e6bf646d429ed186cce832f1f7fd9907814293b83181e9970ab7bd2848360010154846002015f9054906101000a900473ffffffffffffffffffffffffffffffffffffffff168434604051610c32959493929190611996565b60405180910390a15050610c44611291565b5050565b60605f610c5560026111e0565b90505f610c6260016111e0565b82610c6d91906119e7565b90505f8167ffffffffffffffff811115610c8a57610c896116a9565b5b604051908082528060200260200182016040528015610cc357816020015b610cb06112ae565b815260200190600190039081610ca85790505b5090505f805b84811015610e975760055f600183610ce1919061162f565b81526020019081526020015f206005015f9054906101000a900460ff1615610e845760055f600183610d13919061162f565b81526020019081526020015f206040518060c00160405290815f82015f9054906101000a900473ffffffffffffffffffffffffffffffffffffffff1673ffffffffffffffffffffffffffffffffffffffff1673ffffffffffffffffffffffffffffffffffffffff16815260200160018201548152602001600282015f9054906101000a900473ffffffffffffffffffffffffffffffffffffffff1673ffffffffffffffffffffffffffffffffffffffff1673ffffffffffffffffffffffffffffffffffffffff168152602001600382015f9054906101000a900473ffffffffffffffffffffffffffffffffffffffff1673ffffffffffffffffffffffffffffffffffffffff1673ffffffffffffffffffffffffffffffffffffffff16815260200160048201548152602001600582015f9054906101000a900460ff161515151581525050838381518110610e6a57610e696116d6565b5b60200260200101819052508180610e8090611662565b9250505b8080610e8f90611662565b915050610cc9565b508194505050505090565b610eaa6111ec565b5f8111610eec576040517f08c379a0000000000000000000000000000000000000000000000000000000008152600401610ee39061175d565b60405180910390fd5b6003543414610f30576040517f08c379a0000000000000000000000000000000000000000000000000000000008152600401610f27906117c5565b60405180910390fd5b8273ffffffffffffffffffffffffffffffffffffffff166323b872dd3330856040518463ffffffff1660e01b8152600401610f6d939291906117f2565b5f604051808303815f87803b158015610f84575f80fd5b505af1158015610f96573d5f803e3d5ffd5b5050505060045f9054906101000a900473ffffffffffffffffffffffffffffffffffffffff1673ffffffffffffffffffffffffffffffffffffffff166108fc60035490811502906040515f60405180830381858888f19350505050158015611000573d5f803e3d5ffd5b5061100b600261129a565b6040518060c001604052808473ffffffffffffffffffffffffffffffffffffffff1681526020018381526020013373ffffffffffffffffffffffffffffffffffffffff1681526020013073ffffffffffffffffffffffffffffffffffffffff1681526020018281526020016001151581525060055f8481526020019081526020015f205f820151815f015f6101000a81548173ffffffffffffffffffffffffffffffffffffffff021916908373ffffffffffffffffffffffffffffffffffffffff160217905550602082015181600101556040820151816002015f6101000a81548173ffffffffffffffffffffffffffffffffffffffff021916908373ffffffffffffffffffffffffffffffffffffffff1602179055506060820151816003015f6101000a81548173ffffffffffffffffffffffffffffffffffffffff021916908373ffffffffffffffffffffffffffffffffffffffff1602179055506080820151816004015560a0820151816005015f6101000a81548160ff0219169083151502179055509050507fa0c6c0d02d86fdacecbaa5fdf5894bab204e31a778250474108540733a9b8d1983833330856040516111cb959493929190611827565b60405180910390a16111db611291565b505050565b5f815f01549050919050565b60025f5403611230576040517f08c379a000000000000000000000000000000000000000000000000000000000815260040161122790611a64565b60405180910390fd5b60025f81905550565b5f815f015490505f8111611282576040517f08c379a000000000000000000000000000000000000000000000000000000000815260040161127990611acc565b60405180910390fd5b60018103825f01819055505050565b60015f81905550565b6001815f015f828254019250508190555050565b6040518060c001604052805f73ffffffffffffffffffffffffffffffffffffffff1681526020015f81526020015f73ffffffffffffffffffffffffffffffffffffffff1681526020015f73ffffffffffffffffffffffffffffffffffffffff1681526020015f81526020015f151581525090565b5f81519050919050565b5f82825260208201905092915050565b5f819050602082019050919050565b5f73ffffffffffffffffffffffffffffffffffffffff82169050919050565b5f6113748261134b565b9050919050565b6113848161136a565b82525050565b5f819050919050565b61139c8161138a565b82525050565b5f6113ac8261134b565b9050919050565b6113bc816113a2565b82525050565b5f8115159050919050565b6113d6816113c2565b82525050565b60c082015f8201516113f05f85018261137b565b5060208201516114036020850182611393565b50604082015161141660408501826113b3565b50606082015161142960608501826113b3565b50608082015161143c6080850182611393565b5060a082015161144f60a08501826113cd565b50505050565b5f61146083836113dc565b60c08301905092915050565b5f602082019050919050565b5f61148282611322565b61148c818561132c565b93506114978361133c565b805f5b838110156114c75781516114ae8882611455565b97506114b98361146c565b92505060018101905061149a565b5085935050505092915050565b5f6020820190508181035f8301526114ec8184611478565b905092915050565b6114fd8161138a565b82525050565b5f6020820190506115165f8301846114f4565b92915050565b5f80fd5b6115298161136a565b8114611533575f80fd5b50565b5f8135905061154481611520565b92915050565b6115538161138a565b811461155d575f80fd5b50565b5f8135905061156e8161154a565b92915050565b5f805f6060848603121561158b5761158a61151c565b5b5f61159886828701611536565b93505060206115a986828701611560565b92505060406115ba86828701611560565b9150509250925092565b5f80604083850312156115da576115d961151c565b5b5f6115e785828601611536565b92505060206115f885828601611560565b9150509250929050565b7f4e487b71000000000000000000000000000000000000000000000000000000005f52601160045260245ffd5b5f6116398261138a565b91506116448361138a565b925082820190508082111561165c5761165b611602565b5b92915050565b5f61166c8261138a565b91507fffffffffffffffffffffffffffffffffffffffffffffffffffffffffffffffff820361169e5761169d611602565b5b600182019050919050565b7f4e487b71000000000000000000000000000000000000000000000000000000005f52604160045260245ffd5b7f4e487b71000000000000000000000000000000000000000000000000000000005f52603260045260245ffd5b5f82825260208201905092915050565b7f5072696365206d757374206265206174206c65617374203120776569000000005f82015250565b5f611747601c83611703565b915061175282611713565b602082019050919050565b5f6020820190508181035f8301526117748161173b565b9050919050565b7f4e6f7420656e6f75676820657468657220666f72206c697374696e67206665655f82015250565b5f6117af602083611703565b91506117ba8261177b565b602082019050919050565b5f6020820190508181035f8301526117dc816117a3565b9050919050565b6117ec8161136a565b82525050565b5f6060820190506118055f8301866117e3565b61181260208301856117e3565b61181f60408301846114f4565b949350505050565b5f60a08201905061183a5f8301886117e3565b61184760208301876114f4565b61185460408301866117e3565b61186160608301856117e3565b61186e60808301846114f4565b9695505050505050565b7f4e6f7420656e6f75676820657468657220746f20636f7665722061736b696e675f8201527f2070726963650000000000000000000000000000000000000000000000000000602082015250565b5f6118d2602683611703565b91506118dd82611878565b604082019050919050565b5f6020820190508181035f8301526118ff816118c6565b9050919050565b5f819050919050565b5f61192961192461191f8461134b565b611906565b61134b565b9050919050565b5f61193a8261190f565b9050919050565b5f61194b82611930565b9050919050565b61195b81611941565b82525050565b5f6060820190506119745f8301866117e3565b6119816020830185611952565b61198e60408301846114f4565b949350505050565b5f60a0820190506119a95f8301886117e3565b6119b660208301876114f4565b6119c36040830186611952565b6119d06060830185611952565b6119dd60808301846114f4565b9695505050505050565b5f6119f18261138a565b91506119fc8361138a565b9250828203905081811115611a1457611a13611602565b5b92915050565b7f5265656e7472616e637947756172643a207265656e7472616e742063616c6c005f82015250565b5f611a4e601f83611703565b9150611a5982611a1a565b602082019050919050565b5f6020820190508181035f830152611a7b81611a42565b9050919050565b7f436f756e7465723a2064656372656d656e74206f766572666c6f7700000000005f82015250565b5f611ab6601b83611703565b9150611ac182611a82565b602082019050919050565b5f6020820190508181035f830152611ae381611aaa565b905091905056fea26469706673582212207f66c6ed986c23761f72575143327a504ace7b0cab87f48f373e1c182e11883a64736f6c63430008150033",
  "immutableReferences": {},
  "source": "// SPDX-License-Identifier: MIT\r\npragma solidity ^0.8.13;\r\n\r\nimport \"@openzeppelin/contracts/utils/Counters.sol\";\r\nimport \"@openzeppelin/contracts/token/ERC721/ERC721.sol\";\r\nimport \"@openzeppelin/contracts/security/ReentrancyGuard.sol\";\r\n\r\ncontract Marketplace is ReentrancyGuard {\r\n  using Counters for Counters.Counter;\r\n  Counters.Counter private _nftsSold;\r\n  Counters.Counter private _nftCount;\r\n  uint256 public LISTING_FEE = 0.0001 ether;\r\n  address payable private _marketOwner;\r\n  mapping(uint256 => NFT) private _idToNFT;\r\n  struct NFT {\r\n    address nftContract;\r\n    uint256 tokenId;\r\n    address payable seller;\r\n    address payable owner;\r\n    uint256 price;\r\n    bool listed;\r\n  }\r\n  event NFTListed(\r\n    address nftContract,\r\n    uint256 tokenId,\r\n    address seller,\r\n    address owner,\r\n    uint256 price\r\n  );\r\n  event NFTSold(\r\n    address nftContract,\r\n    uint256 tokenId,\r\n    address seller,\r\n    address owner,\r\n    uint256 price\r\n  );\r\n\r\n  constructor() {\r\n    _marketOwner = payable(msg.sender);\r\n  }\r\n\r\n  // List the NFT on the marketplace\r\n  function listNft(address _nftContract, uint256 _tokenId, uint256 _price) public payable nonReentrant {\r\n    require(_price > 0, \"Price must be at least 1 wei\");\r\n    require(msg.value == LISTING_FEE, \"Not enough ether for listing fee\");\r\n\r\n    IERC721(_nftContract).transferFrom(msg.sender, address(this), _tokenId);\r\n    _marketOwner.transfer(LISTING_FEE);\r\n    _nftCount.increment();\r\n\r\n    _idToNFT[_tokenId] = NFT(\r\n      _nftContract,\r\n      _tokenId, \r\n      payable(msg.sender),\r\n      payable(address(this)),\r\n      _price,\r\n      true\r\n    );\r\n\r\n    emit NFTListed(_nftContract, _tokenId, msg.sender, address(this), _price);\r\n  }\r\n\r\n  // Buy an NFT\r\n  function buyNft(address _nftContract, uint256 _tokenId) public payable nonReentrant {\r\n    NFT storage nft = _idToNFT[_tokenId];\r\n    require(msg.value >= nft.price, \"Not enough ether to cover asking price\");\r\n\r\n    address payable buyer = payable(msg.sender);\r\n    payable(nft.seller).transfer(msg.value);\r\n    IERC721(_nftContract).transferFrom(address(this), buyer, nft.tokenId);\r\n    nft.owner = buyer;\r\n    nft.listed = false;\r\n\r\n    _nftsSold.increment();\r\n    emit NFTSold(_nftContract, nft.tokenId, nft.seller, buyer, msg.value);\r\n  }\r\n\r\n  // Resell an NFT purchased from the marketplace\r\n  function resellNft(address _nftContract, uint256 _tokenId, uint256 _price) public payable nonReentrant {\r\n    require(_price > 0, \"Price must be at least 1 wei\");\r\n    require(msg.value == LISTING_FEE, \"Not enough ether for listing fee\");\r\n\r\n    IERC721(_nftContract).transferFrom(msg.sender, address(this), _tokenId);\r\n\r\n    NFT storage nft = _idToNFT[_tokenId];\r\n    nft.seller = payable(msg.sender);\r\n    nft.owner = payable(address(this));\r\n    nft.listed = true;\r\n    nft.price = _price;\r\n\r\n    _nftsSold.decrement();\r\n    emit NFTListed(_nftContract, _tokenId, msg.sender, address(this), _price);\r\n  }\r\n\r\n  function getListedNfts() public view returns (NFT[] memory) {\r\n    uint256 nftCount = _nftCount.current();\r\n    uint256 unsoldNftsCount = nftCount - _nftsSold.current();\r\n\r\n    NFT[] memory nfts = new NFT[](unsoldNftsCount);\r\n    uint nftsIndex = 0;\r\n    for (uint i = 0; i < nftCount; i++) {\r\n      if (_idToNFT[i + 1].listed) {\r\n        nfts[nftsIndex] = _idToNFT[i + 1];\r\n        nftsIndex++;\r\n      }\r\n    }\r\n    return nfts;\r\n  }\r\n\r\n  function getMyNfts() public view returns (NFT[] memory) {\r\n    uint nftCount = _nftCount.current();\r\n    uint myNftCount = 0;\r\n    for (uint i = 0; i < nftCount; i++) {\r\n      if (_idToNFT[i + 1].owner == msg.sender) {\r\n        myNftCount++;\r\n      }\r\n    }\r\n\r\n    NFT[] memory nfts = new NFT[](myNftCount);\r\n    uint nftsIndex = 0;\r\n    for (uint i = 0; i < nftCount; i++) {\r\n      if (_idToNFT[i + 1].owner == msg.sender) {\r\n        nfts[nftsIndex] = _idToNFT[i + 1];\r\n        nftsIndex++;\r\n      }\r\n    }\r\n    return nfts;\r\n  }\r\n\r\n  function getMyListedNfts() public view returns (NFT[] memory) {\r\n    uint nftCount = _nftCount.current();\r\n    uint myListedNftCount = 0;\r\n    for (uint i = 0; i < nftCount; i++) {\r\n      if (_idToNFT[i + 1].seller == msg.sender && _idToNFT[i + 1].listed) {\r\n        myListedNftCount++;\r\n      }\r\n    }\r\n\r\n    NFT[] memory nfts = new NFT[](myListedNftCount);\r\n    uint nftsIndex = 0;\r\n    for (uint i = 0; i < nftCount; i++) {\r\n      if (_idToNFT[i + 1].seller == msg.sender && _idToNFT[i + 1].listed) {\r\n        nfts[nftsIndex] = _idToNFT[i + 1];\r\n        nftsIndex++;\r\n      }\r\n    }\r\n    return nfts;\r\n  }\r\n}\r\n",
  "sourcePath": "C:\\Blockchain_Projects\\kalakriti\\kalakriti\\contracts\\ethereum\\Marketplace.sol",
  "compiler": {
    "name": "solc",
    "version": "0.8.21+commit.d9974bed.Emscripten.clang"
  },
  "schemaVersion": "3.4.16",
  "updatedAt": "2024-02-18T18:16:29.571Z",
  "devdoc": {
    "kind": "dev",
    "methods": {},
    "version": 1
  },
  "userdoc": {
    "kind": "user",
    "methods": {},
    "version": 1
  }
}